8=FIX.4.2|9=74|35=A|34=138|49=BANZAI|52=20080713-09:54:16.277|56=FIXIMULATOR|98=0|108=30|10=129|
8=FIX.4.2|9=74|35=A|34=138|49=FIXIMULATOR|52=20080713-09:54:16.376|56=BANZAI|98=0|108=30|10=129|
8=FIX.4.2|9=191|35=6|34=139|49=FIXIMULATOR|52=20080713-09:54:26.186|56=BANZAI|15=USD|22=5|23=I1215942866150|27=95600|28=N|44=4.2628|48=KRC.N|54=1|55=KRC|62=20080713-10:24:26.185|107=KILROY REALTY CORP|130=Y|10=091|
8=FIX.4.2|9=193|35=6|34=140|49=FIXIMULATOR|52=20080713-09:54:27.265|56=BANZAI|15=USD|22=5|23=I1215942867266|27=22700|28=N|44=46.562|48=IWM.A|54=1|55=IWM|62=20080713-10:24:27.265|107=ISHARES RUSSELL 2000|130=N|10=115|
8=FIX.4.2|9=194|35=6|34=141|49=FIXIMULATOR|52=20080713-09:54:28.295|56=BANZAI|15=USD|22=5|23=I1215942868296|27=61000|28=N|44=27.7884|48=KPA.N|54=2|55=KPA|62=20080713-10:24:28.294|107=INNKEEPERS USA TRUST|130=N|10=041|
8=FIX.4.2|9=62|35=0|34=139|49=BANZAI|52=20080713-09:54:46.592|56=FIXIMULATOR|10=088|
8=FIX.4.2|9=62|35=0|34=142|49=FIXIMULATOR|52=20080713-09:54:58.792|56=BANZAI|10=087|
8=FIX.4.2|9=62|35=0|34=140|49=BANZAI|52=20080713-09:55:17.590|56=FIXIMULATOR|10=077|
8=FIX.4.2|9=62|35=0|34=143|49=FIXIMULATOR|52=20080713-09:55:28.796|56=BANZAI|10=090|
8=FIX.4.2|9=62|35=0|34=141|49=BANZAI|52=20080713-09:55:47.590|56=FIXIMULATOR|10=081|
8=FIX.4.2|9=62|35=0|34=144|49=FIXIMULATOR|52=20080713-09:55:59.792|56=BANZAI|10=091|
8=FIX.4.2|9=62|35=0|34=142|49=BANZAI|52=20080713-09:56:17.590|56=FIXIMULATOR|10=080|
